:100000000C9473020C9490020C9490020C94900245
:100010000C9490020C9490020C9490020C94900218
:100020000C9490020C9490020C94ED170C942718E9
:100030000C9490020C9490020C9490020C949002F8
:100040000C9490020C9490020C9490020C949002E8
:100050000C9490020C9490020C9490020C949002D8
:100060000C9490020C9490020C9490020C949002C8
:100070000C9490020C9490020C9490020C949002B8
:100080000C9490020C9490020C9490020C949002A8
:100090000C9490020C9490020C9490020C94900298
:1000A0000C9490020C9490020C949002DE17DA17D4
:1000B000D617D217CE17CA17C617C217BE17BA1748
:1000C000B617B217AE17AA17A617A2179E179A1738
:1000D000961792178E178A17861782177E177A1728
:1000E000761772176E176A17661762175E175A1718
:1000F000561752174E174A17461742173E173A1708
:10010000361732172E172A17261722171E171A17F7
:10011000161712170E170A1706170217FE16FA16E9
:10012000F616F216EE16EA16E616E216DE166E6100
:100130006E00696E660000407A10F35A00A0724E9D
:1001400018090010A5D4E80000E87648170000E47C
:100150000B54020000CA9A3B000000E1F5050000C4
:1001600080969800000040420F000000A086010029
:100170000000102700000000E803000000006400F9
:10018000000000000A000000000001000000000064
:100190002C76D888DC674F0823DFC1DFAE59E1B188
:1001A000B796E5E3E453C63AE651997696E8E6C297
:1001B0008426EB898C9B62ED407C6FFCEFBC9C9F9E
:1001C00040F2BAA56FA5F490055A2AF75C936B6CC0
:1001D000F9676DC11BFCE0E40D47FEF520E6B500B4
:1001E000D0ED902E0300943577050080841E080022
:1001F00000204E0A000000C80C333333330F986ED2
:1002000012831141EF8D2114893BE65516CFFEE68E
:10021000DB18D1844B381BF77C1D901DA4BBE42454
:10022000203284725E228100C9F124ECA1E53D27D1
:100230006364696E6F70737578585B00000100002D
:10024000E9021200020000A6024300030000A2021D
:1002500004010309048C0214020309047402160346
:1002600003090466020C0C03310032003300340031
:1002700035000000160355005300420020005300D3
:1002800065007200690061006C00000014035900F1
:100290006F007500720020004E0061006D00650067
:1002A00000000403090409024300020100C03209EE
:1002B00004000001020201000524001001052401D0
:1002C000010104240206052406000107058203102B
:1002D000004009040100020A000000070503024073
:1002E0000000070584024000001201000202000025
:1002F00010C0167A040001010203010001C11201BD
:100300008036018136000000000000005F00000020
:1003100007000700147F147F14242A7F2A12231356
:1003200008646236495522500005030000001C2273
:1003300041000041221C0014083E081408083E0831
:10034000080050300000080808080800606000003D
:1003500020100804023E5149453E00427F400042C1
:10036000615149462141454B311814127F102745F0
:100370004545393C4A494930017109050336494927
:100380004936064949291E00363600000056360017
:1003900000081422410014141414140041221408FB
:1003A0000201510906324979413E7E1111117E7FC9
:1003B000494949363E414141227F4141221C7F4902
:1003C0004949417F090909013E4149497A7F0808A5
:1003D000087F00417F41002040413F017F081422F7
:1003E000417F404040407F020C027F7F0408107F25
:1003F0003E4141413E7F090909063E4151215E7F50
:1004000009192946464949493101017F01013F4007
:1004100040403F1F2040201F3F4038403F631408AA
:10042000146307087008076151494543007F414143
:100430000002040810200041417F00040201020470
:100440004040404040000102040020545454787F52
:10045000484444383844444420384444487F38545D
:10046000545418087E0901020C5252523E7F08046F
:10047000047800447D40002040443D007F10284423
:100480000000417F40007C041804787C0804047854
:1004900038444444387C14141408081414187C7C20
:1004A000080404084854545420043F4440203C406D
:1004B00040207C1C2040201C3C4030403C44281004
:1004C00028440C5050503C4464544C44000836417D
:1004D0000000007F000000413608001008081008E6
:1004E00078464146780011241FBECFEFDAE0DEBF28
:1004F000CDBF13E0A0E0B1E0EEE1F1E502C0059070
:100500000D92A235B107D9F725E0A2E5B3E001C00D
:100510001D92AC3DB207E1F70E94F9150C948D28AD
:100520000C9400001F93CF93DF93D82FC62F122F68
:100530005F934F938CED91E09F938F931F9284E193
:100540008F9384E993E09F938F930E9468248DB7E3
:100550009EB708960FB6F8949EBF0FBE8DBF6C2F46
:1005600070E0212F44E953E08D2F90E0DF91CF918F
:100570001F910C94A91B1F93CF93DF93D82FC62FE5
:10058000122F5F934F9388E692E09F938F931F9271
:1005900084E18F9384E993E09F938F930E94682472
:1005A0008DB79EB708960FB6F8949EBF0FBE8DBF4D
:1005B0006C2F70E0212F44E953E08D2F90E0DF9104
:1005C000CF911F910C94A91BFC0101900020E9F729
:1005D0003197BF01681B790B0C948B16CF93DF9377
:1005E000EC010E944E1689930A97D9F7DF91CF91BB
:1005F00008959093BF008093CF00089585988698C2
:1006000050985198209821982798229A239A0895D3
:10061000CF93DF9381E00E947719EC0180E00E9484
:10062000771946E04C9F90014D9F300D112437FF04
:1006300002C021503C4F232F330F330B25952595B6
:10064000235031093093E3032093E20345E0489FB0
:100650009001499F300D112437FF02C021503C4FBB
:10066000832F880F880B932F959595959093A803CA
:100670008093A903DF91CF91089521E041EE51E0ED
:1006800060E070E080E090E00E94A91B21E042EF72
:1006900051E06AE070E080E090E00E94A91B21E058
:1006A0004CEF51E064E170E080E090E00E94A91B13
:1006B00021E04BE052E06EE170E080E090E00E94CB
:1006C000A91B21E044E152E068E270E08FE090E095
:1006D0000E94A91B0E94FE020C948D1921E040E2A9
:1006E00052E062E070E080E090E00E94A91B21E00F
:1006F00043E352E060E070E080E090E00E94A91BDC
:100700004091CF015091D00121E060E08AE00E9449
:10071000BB0221E046E352E060E070E08FE090E051
:100720000E94A91B4091CD015091CE0121E060E0D3
:1007300089E10E94BB0221E049E352E060E070E001
:100740008EE190E00E94A91B4091760350917703BF
:1007500021E060E088E20E94BB0221E04CE352E02D
:1007600060E070E08DE290E00E94A91B409174036C
:100770005091750321E060E087E30E94920221E03E
:1007800047E352E060E070E081E490E00E94A91B42
:10079000409172035091730321E060E086E40C9471
:1007A0009202AF92BF92CF92DF92EF92FF920F939D
:1007B000CF93DF938091CF019091D001813091054B
:1007C00021F5C4E2D1E03CE2A32E31E0B32E44E3B4
:1007D000C42E41E0D42E5CE3E52E51E0F52E2991A4
:1007E0003991F501419151915F01F601619171914A
:1007F0006F0101E0F701819191917F010E94E11960
:10080000F1E0CC32DF0759F725C0029719F5C4E0B3
:10081000D1E08CE0A82E81E0B82E94E1C92E91E0C1
:10082000D92E2CE1E22E21E0F22E29913991F50109
:10083000419151915F01F601619171916F0101E068
:10084000F701819191917F010E94E119F1E0CC3093
:10085000DF0759F7DF91CF910F91FF90EF90DF9075
:10086000CF90BF90AF9008952F923F924F925F929A
:100870006F927F928F929F92AF92BF92CF92DF92B0
:10088000EF92FF920F931F93CF93DF93CDB7DEB715
:1008900029970FB6F894DEBF0FBECDBF80915203EB
:1008A00090915303029709F05DC28091CF0190911E
:1008B000D0018130910509F01CC18091E203909133
:1008C000E303C0903C01D0903D0140903401509032
:1008D00035015B824A82E0902C01F0902D01A091BD
:1008E0002401B0912501509002015D8240913E01AA
:1008F00050913F01A0902E01B0902F01209138011E
:1009000030913901809028019090290100910301D4
:100910000983609042017090430120903A01309029
:100920003B01E0913201F091330160912A01709115
:100930002B017F836E83709100017C8300E010E0C7
:100940000115110561F56D81623521F06C3409F0F6
:1009500088C010C0C80ED91E4A805B80480E591E40
:100960005B824A82E80EF91EA80FB91FA033B105B9
:1009700009F077C0C81AD90A4A805B80481A590A18
:100980005B824A82E81AF90AA81BB90BB2016A30E5
:10099000710519F06CE46D8364C072E51AC0013012
:1009A0001105C9F46D81623521F06C3409F059C02C
:1009B00008C0480F591FA80EB91E4435510509F04B
:1009C00050C0481B590BA81AB90A4115510529F303
:1009D0007CE47D8346C002301105B1F46981653540
:1009E00019F06434F1F507C0280F391F880E991EDD
:1009F00020333105B1F5281B390B881A990A2A30A2
:100A0000310569F174E42CC06C816C3419F06235E5
:100A100041F510C0681A790A280E391EE81BF90B37
:100A20004E805F80480E591E5F824E82B201603355
:100A30007105B9F4680E791E281A390AE80FF91FF2
:100A40004E805F80481A590A5F824E82E435F10574
:100A500019F072E57C8305C06CE46C8302C075E517
:100A600079830F5F1F4F0430110509F069CF8D8125
:100A700080930201D0923D01C0923C014A805B808C
:100A80005092350140923401F0922D01E0922C01F8
:100A9000B0932501A093240150933F0140933E0160
:100AA000B0922F01A0922E015980509203013093F1
:100AB00039012093380190922901809228010C81FC
:100AC00000930001709243016092420130923B0119
:100AD00020923A01F0933301E09332012E813F815D
:100AE00030932B0120932A0110925303109252034A
:100AF00039C10297C9F730910201398360903C01F6
:100B000070903D018091E2039091E3036091340184
:100B1000709135017F836E83C0902C01D0902D01A0
:100B2000A0912401B091250140913E0150913F01D7
:100B3000E0912E01F0912F01FB83EA83A090360112
:100B4000B09037018090260190902701F091030129
:100B5000FC832091380130913901E0902801F09018
:100B60002901409000014D82409042015090430184
:100B700020903A0130903B010091320110913301F5
:100B80001987088760912A0170912B0100E010E01D
:100B90000115110541F5E981E23521F0EC3409F048
:100BA00093C010C0680E791EEE81FF81E80FF91F17
:100BB000FF83EE83C80ED91EA80FB91FA033B1055D
:100BC00009F082C0681A790AEE81FF81E81BF90BEF
:100BD000FF83EE83C81AD90AA81BB90B3A9761F5AF
:100BE000F2E5F98371C00130110541F5E981E23583
:100BF00021F0EC3409F068C010C0480F591FEA8199
:100C0000FB81E80FF91FFB83EA83A80EB91E880E4B
:100C1000991E4435510509F057C0481B590BEA810C
:100C2000FB81E81BF90BFB83EA83A81AB90A881A2F
:100C3000990A41155105A1F2FCE4D3CF0230110508
:100C4000B9F4EC81E53519F0E434F1F507C0280F6B
:100C5000391FE80EF91E20333105B1F5281B390B79
:100C6000E81AF90A2A30310569F1F4E4FC832CC052
:100C7000ED81EC3419F0E23539F50FC0481A590A04
:100C8000280E391EE885F985E81BF90BF987E887F6
:100C9000680F791F60337105B9F4480E591E281A80
:100CA000390AE885F985E80FF91FF987E887681B95
:100CB000790BE435F10519F0E2E5ED8305C0FCE4BC
:100CC000FD8302C0E5E5EC830F5F1F4F0430110583
:100CD00009F05ECFF981F093020170923D016092BC
:100CE0003C010E811F811093350100933401D09295
:100CF0002D01C0922C01B0932501A09324015093A3
:100D00003F0140933E018A819B8190932F01809304
:100D10002E019C8190930301309339012093380177
:100D2000F0922901E0922801ED81E09300015092B8
:100D300043014092420130923B0120923A014884A3
:100D40005984509233014092320170932B01609389
:100D50002A01B0923701A092360190922701809229
:100D60002601C2CE29960FB6F894DEBF0FBECDBFC6
:100D7000DF91CF911F910F91FF90EF90DF90CF9077
:100D8000BF90AF909F908F907F906F905F904F90AB
:100D90003F902F9008958091CF019091D0010297BC
:100DA00009F04DC08091660390916703009781F42C
:100DB00020914D0130914E013093650320936403DF
:100DC00020914B0130914C013093630320936203D7
:100DD000209168033091690322333105E9F4181634
:100DE0001906D4F0609162037091630321E0409191
:100DF000440180916403909165030E94431B10920B
:100E000069031092680380916603909167030196CD
:100E100090936703809366038091660390916703C4
:100E2000019769F4609162037091630321E040913E
:100E3000440180916403909165030C94431B0895D1
:100E4000EF92FF920F931F93CF93DF93C5EBD1E007
:100E50000FEB11E080916C0390916D034E97E9F5D3
:100E600080916A0390916B030697BCF560914B01EA
:100E700070914C0121E04091460180914D0190918B
:100E80004E010E94431B10926D0310926C038091DF
:100E90006A0390916B0360914D0170914E01E09057
:100EA0004B01F0904C01AC019C01220F331FD90182
:100EB000A154BE4F2B543E4F453051054CF4119672
:100EC0007C936E93F901F182E0824F5F5F4FF4CF24
:100ED000019690936B0380936A0380916A039091CB
:100EE0006B031816190654F46881798121E040914A
:100EF0004601F801808191810E94431B22960E5F7A
:100F00001F4FF1E0CF3BDF0709F0A4CFDF91CF9176
:100F10001F910F91FF90EF9008958F929F92AF9243
:100F2000BF92CF92DF92EF92FF920F931F93CF93D6
:100F3000DF930E942E2362E570E00E947D226C0107
:100F40008C010F5F1F4F0E942E2366E270E00E940B
:100F50007D227C0123E0E20EF11CC1EAD1E05BEAD4
:100F6000852E51E0952E49E0C41AD1085C01EDE0D0
:100F7000AE0EB11C80915C0390915D03449709F023
:100F80003FC080915E0390915F030697CCF521E00E
:100F900040914701B701C8010E94431B10925D03B5
:100FA00010925C0380915E0390915F039C01FC01B1
:100FB000EE0FFF1FDF01A555BE4FEF55FE4F253049
:100FC0003105CCF44BE0E416F10434F411961C9393
:100FD0000E93B182A0820CC00035110524F0119649
:100FE000DC92CE9203C011961C930E93F182E082A4
:100FF0002F5F3F4FE4CF019690935F0380935E0392
:1010000080915E0390915F031816190654F468816D
:10101000798121E040914701F401808191810E9412
:10102000431B2296F2E08F0E911C21E0CB3AD207AF
:1010300009F0A0CFDF91CF911F910F91FF90EF901A
:10104000DF90CF90BF90AF909F908F9008958FE4E6
:1010500090E090934E0180934D0187E290E0909351
:101060004C0180934B0108950F931F93CF93DF930F
:101070000091540310915503C0914F01D09150013C
:1010800041E0BE01C8010E94A819809158039091C7
:1010900059039C01220F331FF901E758FE4F1183BA
:1010A0000083F901EF5AFE4FD183C08301969093DC
:1010B000590380935803DF91CF911F910F910895A9
:1010C0008F929F92AF92BF92CF92DF92EF92FF9258
:1010D0000F931F93CF93DF9382EBE82E83E0F82EDC
:1010E00009E711E0C1E5D1E0812C912C94E6C92EED
:1010F000D12CAA24A394B12C809158039091590328
:10110000881699060CF080C0F801808191812091A9
:101110004D0130914E01821793073CF4F701208175
:101120003181232B79F4019609C02817390754F42B
:10113000F70120813181232B29F40197F801918354
:1011400080831BC08881998120914B0130914C0193
:10115000821793073CF4F70120813181232B69F436
:10116000019609C02817390744F4F701208131811D
:10117000232B19F40197998388836881798141E051
:10118000F801808191810E94A819F80120813181A4
:1011900080914D0190914E0128173907D1F4288193
:1011A000398180914B0190914C012817390789F4BE
:1011B000D182C082D982C88280915803909159030C
:1011C00001979093590380935803B0925703A092CC
:1011D0005603F701819191917F01892B71F0F801FC
:1011E000D182C082D982C8828091580390915903DC
:1011F00001979093590380935803FFEF8F1A9F0A2A
:101200000E5F1F4F229678CF80915603909157031F
:10121000019771F4DF91CF911F910F91FF90EF90A3
:10122000DF90CF90BF90AF909F908F900C94270845
:10123000DF91CF911F910F91FF90EF90DF90CF90B2
:10124000BF90AF909F908F900895841B950BAB013A
:10125000421B530B889FB001899F700D700D1124A4
:10126000449FC001459F900D900D1124680F791F78
:10127000072E000C880B990B0E94C1200C940D22A4
:101280002F923F924F925F926F927F92AF92BF9256
:10129000CF92DF92EF92FF920F931F93CF93DF9342
:1012A000CDB7DEB728970FB6F894DEBF0FBECDBF1F
:1012B0002C013B011A013E832D830E94250969837D
:1012C0007A838B839C839701A801B301C2010E949A
:1012D00025092B013C019701A8016D817E81C10187
:1012E0000E9425096D837E838F839887A3019201D5
:1012F00069817A818B819C810E94A61F9B01AC0130
:101300006D817E818F8198850E94A51F0E94892012
:101310009B0177FF04C022273327261B370BB90117
:10132000330F880B990B0E94C12021E030E03A83F3
:101330002983A60195010E941220181614F41A821E
:10134000198289819A8128960FB6F894DEBF0FBE64
:10135000CDBFDF91CF911F910F91FF90EF90DF9064
:10136000CF90BF90AF907F906F905F904F903F90E5
:101370002F9008952F923F924F925F926F927F929B
:101380008F929F92AF92BF92CF92DF92EF92FF9295
:101390000F931F93CF93DF93CDB7DEB760970FB650
:1013A000F894DEBF0FBECDBF8091CF019091D001E8
:1013B0008130910509F0B3C04090C9015090CA0135
:1013C0006090CB017090CC0180904F0190905001C3
:1013D0002090540330905503C4010B969A87898757
:1013E000F1013297FC87EB87C10105969E878D87B7
:1013F000E4E2F1E0F88BEF878CE291E09A83898355
:10140000E4E3F1E0FC83EB838CE391E09E838D8346
:10141000EAEAF3E0F887EF83499B14C0EF85F88987
:10142000E080F180E981FA8100811181EB81FC810A
:1014300020813181ED81FE81408151816301520122
:10144000B40116C01F9B16C0EF85F889E080F180BB
:10145000E981FA8100811181EB81FC812081318158
:10146000ED81FE81408151816301520169857A8558
:10147000C1012FC0199B16C0EF85F889E080F1806B
:10148000E981FA8100811181EB81FC812081318128
:10149000ED81FE814081518163015201B4018B8550
:1014A0009C8517C0489B1BC0EF85F889E080F180C0
:1014B000E981FA8100811181EB81FC8120813181F8
:1014C000ED81FE814081518163015201B4018D851E
:1014D0009E850E944009EF81F885918380838F85E6
:1014E00098890296988B8F87E981FA813296FA83E0
:1014F000E9838B819C8102969C838B83ED81FE81A5
:101500003296FE83ED838F819885029698878F832C
:10151000EF85F889EC52F14009F07ECFB5C0029713
:1015200009F0B2C04090C9015090CA016090CB014F
:101530007090CC0180904F01909050012090540306
:1015400030905503C4010B969A878987F101329731
:10155000FC87EB87C10105969E878D87E4E0F1E06B
:10156000F88BEF878CE091E09A838983E4E1F1E0E6
:10157000FC83EB838CE191E09E838D83EAEAF3E0C8
:10158000F887EF83499B14C0EF85F889E080F180EC
:10159000E981FA8100811181EB81FC812081318117
:1015A000ED81FE814081518163015201B40116C079
:1015B0001F9B16C0EF85F889E080F180E981FA81F0
:1015C00000811181EB81FC8120813181ED81FE81DF
:1015D000408151816301520169857A85C1012FC023
:1015E000199B16C0EF85F889E080F180E981FA81C6
:1015F00000811181EB81FC8120813181ED81FE81AF
:101600004081518163015201B4018B859C8517C0D3
:10161000489B1BC0EF85F889E080F180E981FA8161
:1016200000811181EB81FC8120813181ED81FE817E
:101630004081518163015201B4018D859E850E94D4
:101640004009EF81F885918380838F859889029680
:10165000988B8F87E981FA813296FA83E9838B81AF
:101660009C8102969C838B83ED81FE813296FE8362
:10167000ED838F819885029698878F83EF85F8890F
:10168000EC50F14009F07ECF60960FB6F894DEBFC3
:101690000FBECDBFDF91CF911F910F91FF90EF90C3
:1016A000DF90CF90BF90AF909F908F907F906F9082
:1016B0005F904F903F902F9008952F923F924F92BE
:1016C0005F926F927F928F929F92AF92BF92CF92D2
:1016D000DF92EF92FF920F931F93CF93DF93CDB7DB
:1016E000DEB72E970FB6F894DEBF0FBECDBF809148
:1016F00058039091590398878F838091C9019091E5
:10170000CA01A091CB01B091CC0189879A87AB87A0
:10171000BC87A4E2B1E0BE87AD878CE2282E81E0D1
:10172000382E94E3492E91E0592EECE3F1E0FA8350
:10173000E98322EB622E23E0722EE1E5F1E0FC83E7
:10174000EB8389E791E09E838D83812C912CEF813F
:10175000F8858E169F063CF5AB81BC816D917D911D
:10176000BC83AB83ED85FE85E080F180D1010D91D6
:101770001C91F20120813181A981BA814D915C9146
:10178000A984BA84CB84DC84ED81FE81819191911E
:10179000FE83ED830E944009D3018D939C93BFEF9C
:1017A0008B1A9B0AD4CF8D859E8502969E878D8746
:1017B00092E0290E311CA2E04A0E511CE981FA8107
:1017C0003296FA83E983F2E06F0E711C8D859E8557
:1017D0008C52914009F0B1CF2E960FB6F894DEBF2F
:1017E0000FBECDBFDF91CF911F910F91FF90EF9072
:1017F000DF90CF90BF90AF909F908F907F906F9031
:101800005F904F903F902F9008952091600330910A
:10181000610360914F017091500180915403909148
:1018200055032130310521F421E04091480103C0E6
:1018300021E0409149010E94431B60914B0170914E
:101840004C0121E040914A0180914D0190914E015F
:101850000C94431B499B27C02091AA033091AB03F2
:101860008091AC039091AD03822B932B2091AE031A
:101870003091AF03822B932B2091B0033091B103B1
:10188000822B932B892B79F480914F0190915001F9
:101890008B3091050CF493C02091A8033091A903DB
:1018A000821B930B28C01F9B2BC02091AA03309151
:1018B000AB038091AC039091AD03822B932B2091CD
:1018C000AE033091AF03822B932B2091B003309164
:1018D000B103822B932B892B99F480914F01909126
:1018E0005001883291050CF06AC02091A803309114
:1018F000A903820F931F9093500180934F01089585
:10190000199B25C02091AA033091AB038091AC03B1
:101910009091AD03822B932B2091AE033091AF03B6
:10192000822B932B2091B0033091B103822B932B08
:10193000892B69F4809154039091550397FD3FC022
:101940002091A8033091A903821B930B27C0489BC9
:101950002AC02091AA033091AB038091AC039091EF
:10196000AD03822B932B2091AE033091AF03822BDA
:10197000932B2091B0033091B103822B932B892BB1
:1019800091F480915403909155038E349105BCF4E9
:101990002091A8033091A903820F931F90935503C0
:1019A000809354030895189B0AC01899FECF809124
:1019B0005A0390915B03039714F00C943408089534
:1019C0000E942E2364E670E00E947D2289319105F9
:1019D0007CF480914B0190914C018B3091050CF47B
:1019E00047C02091A8033091A903821B930B13C019
:1019F0009C012A5131092831310590F480914B0125
:101A000090914C01883291059CF52091A80330916A
:101A1000A903820F931F90934C0180934B0108956B
:101A20009C01235331092831310568F480914D011F
:101A300090914E0197FD1CC02091A8033091A903FD
:101A4000821B930B11C08C549109489788F48091A4
:101A50004D0190914E018E34910554F42091A803CC
:101A60003091A903820F931F90934E0180934D01F3
:101A70000895209154033091550380914D01909128
:101A80004E012817390709F053C020914F013091BA
:101A9000500180914B0190914C012817390709F0B2
:101AA00047C08091600390916103009701F5109207
:101AB0005503109254038BE090E090935001809373
:101AC0004F018FE490E090934E0180934D0187E2A7
:101AD00090E090934C0180934B018091CD019091C7
:101AE000CE0101979093CE018093CD010895019787
:101AF000F9F410925503109254038BE090E0909308
:101B0000500180934F018FE490E090934E018093B9
:101B10004D0187E290E090934C0180934B018091BE
:101B200076039091770301969093770380937603E1
:101B30000895CF92DF92EF92FF920F931F93CF936E
:101B4000DF9360916A0370916B03C0915403D0914D
:101B5000550300914F0110915001E0906003F09007
:101B600061038091CD019091CE01E5EBF1E0AFEB07
:101B7000B1E020E030E044E650E026173707CCF42F
:101B8000CD90DC901197CC16DD0671F4C080D18029
:101B9000C016D10649F4E114F10431F4019711960D
:101BA0005C934E93518340832F5F3F4F3296129642
:101BB000E4CF9093CE018093CD01DF91CF911F911F
:101BC0000F91FF90EF90DF90CF900895CF92DF922A
:101BD000EF92FF920F931F93CF93DF9300915403E3
:101BE00010915503E0904F01F09050014091760321
:101BF0005091770320915A0330915B0380915E03EB
:101C000090915F03E1EAF1E0ABEAB1E060E070E0FF
:101C1000C4E6D0E068177907D4F4CD90DC90119732
:101C2000C016D10679F4C080D180CE14DF0451F4FF
:101C30004F5F5F4F2F5F3F4F1196DC93CE93D18361
:101C4000C08301976F5F7F4F32961296E3CF509318
:101C500077034093760330935B0320935A0390936A
:101C60005F0380935E03DF91CF911F910F91FF90EF
:101C7000EF90DF90CF900895209154033091550359
:101C800080916403909165032817390761F42091CE
:101C90004F013091500180916203909163032817A6
:101CA000390709F4FFCF08950E946E030E94D10303
:101CB0008091520390915303019690935303809324
:101CC00052030895CF93DF930E94A01921E04FE3C0
:101CD00052E06AE070E080E090E00E94A91B21E001
:101CE0004AE452E064E170E080E090E00E94A91BC9
:101CF00021E047E552E06EE170E080E090E00E9474
:101D0000A91B0E948D1910928103109280037D9B64
:101D10003CC07D99FECF0E94540E81E090E09093EC
:101D2000D0018093CF0110925F0310925E03109256
:101D30006B0310926A0310926D0310926C03109261
:101D40005D0310925C0310925B0310925A03109291
:101D5000670310926603EBEAF1E021EA31E0CFEB92
:101D6000D1E065EB71E084E690E081939193D90135
:101D70008D939D939D0189939993DB018D939D9301
:101D8000BD01B1E0E53BFB0781F7DF91CF910895FD
:101D90008F929F92AF92BF92CF92DF92EF92FF927B
:101DA00080916E0390916F03892BE1F40E942E23A2
:101DB0006FE470E00E947D2201969093DD03809392
:101DC000DC030E942E2366E270E00E947D220A96C8
:101DD00090937F0380937E0381E090E090936F0364
:101DE00080936E0360917E0370917F03072E000C39
:101DF000880B990B0E94C1200E94E3216B017C019A
:101E00006091DC037091DD03072E000C880B990BA9
:101E10000E94C1200E94E3214B015C01C701B60171
:101E20000E9489206B017C01C501B4010E948920B8
:101E3000DC01CB0121E040914501B601FF90EF901C
:101E4000DF90CF90BF90AF909F908F900C94431BEA
:101E50008F929F92AF92BF92CF92DF92EF92FF92BA
:101E60000F931F93CF93DF93209154033091550329
:101E70008091DC039091DD032817390709F081C0B8
:101E800020914F013091500180917E0390917F030A
:101E90002817390709F075C08091CF019091D001C2
:101EA000C0915E03D0915F03A0916A03B0916B0370
:101EB00060916C0370916D0380905C0390905D0362
:101EC000A0905A03B0905B0324E630E08330910584
:101ED00054F50196EBEAF1E041EAC42E41E0D42E3C
:101EE0005FEBE52E51E0F52E05EB11E021933193E8
:101EF000D6012D933D936D01D7012D933D937D0127
:101F0000D8012D933D938D01C0E0D0E0A0E0B0E07A
:101F100060E070E0812C912CA12CB12C41E0E53BDC
:101F2000F40721F7D3CF9093D0018093CF01D093C2
:101F30005F03C0935E03B0936B03A0936A03709337
:101F40006D0360936C0390925D0380925C03B0928A
:101F50005B03A0925A03039731F481E090E09093E1
:101F6000D0018093CF01DF91CF911F910F91FF900E
:101F7000EF90DF90CF90BF90AF909F908F900C9498
:101F8000620EDF91CF911F910F91FF90EF90DF9044
:101F9000CF90BF90AF909F908F90089580917003E5
:101FA000909171030A9769F4109271031092700373
:101FB00080917203909173030196909373038093C1
:101FC00072038091720390917303CC9769F410921D
:101FD00073031092720380917403909175030196BC
:101FE0009093750380937403089583E08093BF00FA
:101FF0008FEF8093D10082E88093C0003F9A87E002
:102000008093C1001092C3000895EF92FF920F9346
:102010001F93CF93DF93CDB7DEB7A0970FB6F89499
:10202000DEBF0FBECDBF0E944E168C018A349105D3
:1020300049F5CE0101967C010E94EE02C7010E9483
:10204000E4028CE793E09F938F9382E893E09F9361
:102050008F9385E692E09F938F93FF92EF920E9479
:1020600098248091820390918303909355038093E9
:10207000540380917C0390917D0390935001809351
:102080004F012BC08435910571F5CE0101967C017D
:102090000E94EE02C7010E94E4028AED93E09F9342
:1020A0008F9380EE93E09F938F9385E692E09F93CA
:1020B0008F93FF92EF920E9498248091E003909179
:1020C000E10390934E0180934D018091DA0390914A
:1020D000DB0390934C0180934B010FB6F894DEBF65
:1020E0000FBECDBFD1C08133910509F042C08E0132
:1020F0000F5F1F4FC8010E94EE02C8010E94E40258
:102100008EE893E09F938F9386E893E09F938F935D
:102110008CE893E09F938F9384E893E09F938F9351
:102120008FE592E09F938F931F930F930E949824C3
:10213000809184039091850390933D0180933C01AD
:1021400080918C0390918D0390933501809334019D
:10215000809186039091870390932D0180932C01A9
:1021600080918E0390918F03909325018093240199
:10217000D0C08233910509F042C08E010F5F1F4F1E
:10218000C8010E94EE02C8010E94E4028EE893E0BA
:102190009F938F9386E893E09F938F938CE893E0CF
:1021A0009F938F9384E893E09F938F938FE592E0C2
:1021B0009F938F931F930F930E9498248091840381
:1021C0009091850390933F0180933E0180918C0311
:1021D00090918D039093370180933601809186030F
:1021E0009091870390932F0180932E0180918E030D
:1021F00090918F0390932701809326018AC0C39703
:1022000009F042C08E010F5F1F4FC8010E94EE020D
:10221000C8010E94E4028EE893E09F938F9386E8C2
:1022200093E09F938F938CE893E09F938F9384E840
:1022300093E09F938F938FE592E09F938F931F93EB
:102240000F930E949824809184039091850390932A
:1022500041018093400180918C0390918D03909374
:102260003901809338018091860390918703909380
:1022700031018093300180918E0390918F03909370
:1022800029018093280145C00433110509F046C097
:102290008E010F5F1F4FC8010E94EE02C8010E940D
:1022A000E4028EE893E09F938F9386E893E09F93F8
:1022B0008F938CE893E09F938F9384E893E09F93B0
:1022C0008F938FE592E09F938F931F930F930E94BC
:1022D0009824809184039091850390934301809387
:1022E000420180918C0390918D0390933B018093E8
:1022F0003A018091860390918703909333018093F4
:10230000320180918E0390918F0390932B018093E3
:102310002A010FB6F894DEBF0FBECDBFA0960FB650
:10232000F894DEBF0FBECDBFDF91CF911F910F910B
:10233000FF90EF900895EF92FF920F931F93CF932A
:10234000DF93CDB7DEB7A0970FB6F894DEBF0FBE10
:10235000CDBF0E947116882309F423C30E944E1634
:102360008C018136910509F040C02091AA0330917B
:10237000AB038091AC039091AD03822B932B209102
:10238000AE033091AF03822B932B2091B003309199
:10239000B103822B932B892B09F031C11F9281E667
:1023A0008F938BE692E09F938F931F9280E28F939F
:1023B0009E012F5F3F4F79013F932F930E94682426
:1023C000C7010E94E40280915403909155030FB617
:1023D000F894DEBF0FBECDBF97FD11C12091A803B9
:1023E0003091A903821B930B45C08436910509F0F7
:1023F00046C02091AA033091AB038091AC03909129
:10240000AD03822B932B2091AE033091AF03822B2F
:10241000932B2091B0033091B103822B932B892B06
:1024200009F0EDC01F9284E68F938BE692E09F93B4
:102430008F931F9280E28F939E012F5F3F4F790110
:102440003F932F930E946824C7010E94E402809169
:102450005403909155030FB6F894DEBF0FBECDBF65
:102460008E3491050CF0CBC02091A8033091A903C4
:10247000820F931F9093550380935403C0C08737F6
:10248000910509F046C02091AA033091AB038091D9
:10249000AC039091AD03822B932B2091AE0330912E
:1024A000AF03822B932B2091B0033091B103822B89
:1024B000932B892B09F0C9C01F9287E78F938BE676
:1024C00092E09F938F931F9280E28F939E012F5FE4
:1024D0003F4F79013F932F930E946824C7010E94C8
:1024E000E40280914F01909150010FB6F894DEBF45
:1024F0000FBECDBF8B3091050CF4A7C02091A8036F
:102500003091A903821B930B9093500180934F014C
:102510009CC08337910509F046C02091AA033091F1
:10252000AB038091AC039091AD03822B932B209150
:10253000AE033091AF03822B932B2091B0033091E7
:10254000B103822B932B892B09F03EC11F9283E7A5
:102550008F938BE692E09F938F931F9280E28F93ED
:102560009E012F5F3F4F79013F932F930E94682474
:10257000C7010E94E40280914F01909150010FB673
:10258000F894DEBF0FBECDBF883291050CF01CC1A0
:102590002091A8033091A903820F931F90935001BB
:1025A00080934F0111C18037910549F51F9280E753
:1025B0008F938BE692E09F938F931F9280E28F938D
:1025C0008E010F5F1F4F1F930F930E946824C80155
:1025D0000E94E4020FB6F894DEBF0FBECDBF80911B
:1025E000800390918103019719F482E090E002C08A
:1025F00081E090E09093810380938003D2C10636FE
:10260000110519F51F9286E68F938BE692E09F9352
:102610008F931F9280E28F938E010F5F1F4F1F9346
:102620000F930E946824C8010E94E4020FB6F89438
:10263000DEBF0FBECDBF80915A0390915B0303971D
:102640000CF4AFC10E943408ACC10C36110509F07E
:10265000BBC01F928CE68F938BE692E09F938F9383
:102660001F9280E28F938E010F5F1F4F1F930F9376
:102670000E946824C8010E94E4028091CF019091D9
:10268000D0010FB6F894DEBF0FBECDBF82309105EA
:1026900019F40E94620E41C001969093D00180937C
:1026A000CF0110925F0310925E0310926B031092A1
:1026B0006A0310926D0310926C0310925D031092E6
:1026C0005C0310925B0310925A03109267031092FE
:1026D000660384E690E0909365038093640390938F
:1026E000630380936203EBEAF1E041EA51E02FEBF0
:1026F00031E005EB11E081939193DA018D939D9385
:10270000AD01D9018D939D939D01D8018D939D932A
:102710008D01B1E0E53BFB0771F782E190E090931A
:102720003D0180933C0189E190E090933F018093CB
:102730003E014DE250E050934101409340012AE3B5
:1027400030E030934301209342012FE030E030939A
:1027500035012093340123E230E030933701209398
:1027600036012AE030E0309339012093380190930C
:102770003B0180933A016DE070E070932D0160930E
:102780002C0190932F0180932E016CE370E07093E5
:1027900031016093300168E470E07093330160931D
:1027A0003201909325018093240150932701409397
:1027B000260130932901209328018EE190E0909327
:1027C0002B0180932A01EDC00936110509F0E9C0FB
:1027D0001F9289E68F938BE792E09F938F931F92CE
:1027E00080E2F82EFF928E010F5F1F4F1F930F9311
:1027F0000E946824C8010E94E402809173038F93B1
:10280000809172038F93809175038F9380917403ED
:102810008F9389E892E09F938F931F92FF921F936B
:102820000F930E946824C8010E94E4028091D001A5
:102830008F938091CF018F9380EA92E09F938F9343
:102840001F92FF921F930F930E946824C8010E9459
:10285000E4028091CE018F938091CD018F938CEA19
:1028600092E09F938F931F92FF921F930F930E946A
:1028700068240FB6F894DEBF0FBECDBFC8010E941A
:10288000E402809177038F93809176038F9388EB96
:1028900092E09F938F931F92FF921F930F930E943A
:1028A0006824C8010E94E402809159038F938091AB
:1028B00058038F9384EC92E09F938F931F92FF9223
:1028C0001F930F930E946824C8010E94E402809124
:1028D0006B038F9380916A038F938EED92E09F93A9
:1028E0008F931F92FF921F930F930E946824C80139
:1028F0000E94E40280915F038F9380915E038F9327
:1029000089EF92E09F938F931F92FF921F930F93F3
:102910000E9468240FB6F894DEBF0FBECDBFC80179
:102920000E94E40280915B038F9380915A038F93FE
:1029300080E193E09F938F931F92FF921F930F93D9
:102940000E946824C8010E94E402809161038F9371
:10295000809160038F9380E393E09F938F931F9206
:10296000FF921F930F930E946824C8010E94E40203
:10297000809180039091810301979F938F9381E4CD
:1029800093E09F938F931F92FF921F930F930E9448
:102990006824C8010E94E4020FB6F894DEBF0FBE9F
:1029A000CDBFA0960FB6F894DEBF0FBECDBFDF91AE
:1029B000CF911F910F91FF90EF900895CF93DF93E8
:1029C0000E9408038091600390916103019719F0C0
:1029D0007D990CC019C0C0E0D0E0CE010E94F90280
:1029E0002196C11544E0D407C1F7F2CF809180034E
:1029F00090918103892B41F47D99FECF81E090E095
:102A000090938103809380037E9B4DC07E99FECF7F
:102A10008091CF019091D0018230910519F40E94EC
:102A2000620E3FC001969093D0018093CF01109227
:102A30005F0310925E0310926B0310926A03109270
:102A40006D0310926C0310925D0310925C03109260
:102A50005B0310925A03109267031092660384E698
:102A600090E0909365038093640390936303809355
:102A70006203EBEAF1E021EA31E0CFEBD1E065EB74
:102A800071E081939193D9018D939D939D018993D9
:102A90009993DB018D939D93BD01B1E0E53BFB076D
:102AA00081F70E9405107D9B0EC08091800390915C
:102AB0008103019741F47D99FECF82E090E09093ED
:102AC0008103809380037D9B0EC080918003909151
:102AD0008103029741F47D99FECF81E090E09093CD
:102AE00081038093800380918003909181038130E2
:102AF000910509F062C00E94A0190E94CE0F0E94A9
:102B0000540E0E949B110E94390D0E945D0B0E9481
:102B1000BA090E94990D0E94E60D0E943C0E0E9487
:102B2000280F0E942A0C0E94E00C0E9434040E948C
:102B3000050C0E94200780916C0390916D03019613
:102B400090936D0380936C030E948D0780915C03CA
:102B500090915D03019690935D0380935C030E94C6
:102B6000CB06809168039091690301969093690365
:102B70008093680380917003909171030196909304
:102B800071038093700380915A0390915B030597C2
:102B900014F00E94C80E8091CD019091CE01892B36
:102BA00011F40E94620E80915803909159031816F7
:102BB0001906DCF40E94600818C00297B1F40E9464
:102BC000A0190E94540E0E942A0C0E949B110E9480
:102BD000050C0E9420070E948D070E94CB060E94D0
:102BE000390D0E94990D0E94E60DDF91CF910C9452
:102BF0008D1980E88093610081E0809361008FE30C
:102C00000E94EC1B14BC85E085BD66B570E080E0D9
:102C100090E00E94C12020E030E040E854E40E94AF
:102C2000762120E034E244EF5AE40E9417200E940B
:102C30009020CB010E9433230E9473190E94351605
:102C40000E94F50F0E943D030E94DE142FEF80E7E3
:102C500092E0215080409040E1F700C00000F4CFA6
:102C60008091E80080FFFCCF089581E08093D70039
:102C700080EA8093D80082E189BD09B400FEFDCFCF
:102C800080E98093D8001092E00010927B031092AC
:102C900078038CE08093E200789408959FB7F894CD
:102CA00080917B03882369F083E08093E9002BE621
:102CB0008091E80085FD09C082FF03C02093E800F1
:102CC000F7CF9FBF8FEF9FEF08958091F100209184
:102CD000E80025FD03C02BE62093E8009FBF90E0AD
:102CE00008952FB7F89480917B03811102C080E092
:102CF00010C083E08093E9008091F200811109C047
:102D00009091E80092FFF3CF95FDF1CF9BE6909371
:102D1000E8002FBF08950F931F93CF93DF93DC013B
:102D2000CB0120917B03222371F02FB7F89434E07C
:102D30003093E90030917903332349F03091E80072
:102D400035FD03C02FBF8FEF43C110927903C4E05C
:102D5000D0E41AE305E0009709F439C13091E400AA
:102D6000375E4091E80045FD12C02FBF2091E4007E
:102D7000321304C081E080937903E5CF20917B0377
:102D8000222309F32FB7F894C093E900EACF3091DA
:102D9000F200ED2FE31B4E2F50E08417950708F447
:102DA000E82F8E1B91094E2F50E04134510508F059
:102DB00001C1FA01EA5AFF4F0C9491223C913093E1
:102DC000F10011963C913093F10011963C913093B3
:102DD000F10011963C913093F10011963C913093A3
:102DE000F10011963C913093F10011963C91309393
:102DF000F10011963C913093F10011963C91309383
:102E0000F10011963C913093F10011963C91309372
:102E1000F10011963C913093F10011963C91309362
:102E2000F10011963C913093F10011963C91309352
:102E3000F10011963C913093F10011963C91309342
:102E4000F10011963C913093F10011963C91309332
:102E5000F10011963C913093F10011963C91309322
:102E6000F10011963C913093F10011963C91309312
:102E7000F10011963C913093F10011963C91309302
:102E8000F10011963C913093F10011963C913093F2
:102E9000F10011963C913093F10011963C913093E2
:102EA000F10011963C913093F10011963C913093D2
:102EB000F10011963C913093F10011963C913093C2
:102EC000F10011963C913093F10011963C913093B2
:102ED000F10011963C913093F10011963C913093A2
:102EE000F10011963C913093F10011963C91309392
:102EF000F10011963C913093F10011963C91309382
:102F0000F10011963C913093F10011963C91309371
:102F1000F10011963C913093F10011963C91309361
:102F2000F10011963C913093F10011963C91309351
:102F3000F10011963C913093F10011963C91309341
:102F4000F10011963C913093F10011963C91309331
:102F5000F10011963C913093F10011963C91309321
:102F6000F10011963C913093F10011963C91309311
:102F7000F10011963C913093F10011963C91309301
:102F8000F10011963C913093F10011963C913093F1
:102F9000F10011963C913093F10011963C913093E1
:102FA000F10011963C913093F10011963C913093D1
:102FB000F10011963C913093F10011963091E800A8
:102FC00035FF1093E80000937A032FBFC4CE80E052
:102FD000DF91CF911F910F9108951F920F920FB61D
:102FE0000F9211248F939F938091E1001092E10042
:102FF00083FF11C01092E90091E09093EB001092D2
:10300000EC0092E19093ED0098E09093F000109224
:103010007B031092780382FF13C080917B03882387
:1030200079F080917A03882359F0815080937A0354
:10303000811106C084E08093E9008AE38093E80070
:103040009F918F910F900FBE0F901F9018951F9218
:103050000F920FB60F921124FF920F931F932F938D
:103060003F934F935F936F937F938F939F93AF9310
:10307000BF93CF93DF93EF93FF931092E90080917A
:10308000E80083FF17C1F090F1008091F1000091FA
:10309000F1009091F10010E0192BC091F100909196
:1030A000F100D0E0D92B2091F1006091F10092EF76
:1030B0009093E800863009F049C08CE392E046E640
:1030C00052E0FC01A591B4910A171B07D9F4FC0149
:1030D0003296A591B491CA17DB07A1F4FC0134968E
:1030E00045915491FC013696849130E0362B2F3F68
:1030F000310519F010F02FEF30E0281708F4822F77
:103100003EEF0CC0079648175907D9F6D3C0490FB0
:10311000511D891B3093E8008823A9F09091E800A5
:10312000292F2570D9F392FDC8C0982F813108F05E
:1031300090E1FA01292F222351F364916093F10069
:1031400021503196F8CF903149F3B7C0853049F41A
:103150008EEF8093E8000E94301600680093E30031
:10316000ACC0893059F5F110A5C000937B031092D3
:10317000780310927A038EEF8093E80041E08BEFA2
:1031800092E04093E9009C012F5F3F4FFC01549176
:103190005093EB00552359F0F90124912093EC0052
:1031A0009C012D5F3F4F3196E491E093ED004F5F1E
:1031B000453011F0C901E5CF8EE177C0883051F478
:1031C000F0E8FF1277C00E94301680917B03809355
:1031D000F10049C0813281F481EAF8126BC00E948B
:1031E0003016E1EDF1E088ED91E021912093F100BE
:1031F0008E179F07D1F737C08032A9F491E2F912F8
:1032000059C08091E80082FFFCCFE1EDF1E088ED4C
:1032100091E02091F10021938E179F07D1F78BEF5A
:103220008093E80020C0823241F4E1E2FE1242C005
:10323000009378030E94301616C0811118C00E94B6
:103240003016F2E8FF120AC0C093E9008091EB004B
:1032500085FB882780F91092E90001C080E0809307
:10326000F1001092F1008EEF8093E80026C0982FB5
:103270009D7F9130F9F492E0F9121CC0012BD1F43A
:10328000CF779FEF9C0F9430A8F49EEF9093E800C7
:10329000C093E900833071F089E18093EB0081E015
:1032A00090E001C0880FCA95EAF78093EA00109277
:1032B000EA0003C081E28093EB00FF91EF91DF9180
:1032C000CF91BF91AF919F918F917F916F915F91BE
:1032D0004F913F912F911F910F91FF900F900FBE33
:1032E0000F901F90189587E880937A000895982F83
:1032F0009F71906490937C00807280937B0080919A
:103300007A00806480937A0080917A0086FDFCCFF9
:1033100080917800909179000895CF93DF9360E0D9
:1033200080E00E941C1CC4EED3E0699181E00E9401
:10333000CE1B85E0CC3DD807C1F7DF91CF91089532
:10334000E4EEF3E0119285E0EC3DF807D9F708953B
:1033500084359105A8F56033710590F59B0173E004
:10336000359527957A95E1F76770452BA1F044E5EF
:10337000429FF001439FF00D11248E0F9F1FFC010F
:10338000EC51FC4F81E090E001C0880F6A95EAF7AC
:103390009081892B14C044E5429FF001439FF00DBA
:1033A00011248E0F9F1FFC01EC51FC4F81E090E037
:1033B00001C0880F6A95EAF7809590818923808300
:1033C00008952F923F924F925F926F927F928F92C9
:1033D0009F92AF92BF92CF92DF92EF92FF920F93A4
:1033E0001F93CF93DF93CDB7DEB72E970FB6F89428
:1033F000DEBF0FBECDBF1C013B012A013A832983EA
:103400008417950771F57C836B8329813A81621655
:1034100073069CF48B819C81281739070CF41AC120
:10342000A8016B817C81C1010E94A8192B813C817C
:103430002F5F3F4F3C832B83E8CFAB81BC81298139
:103440003A81A217B3070CF405C1A8016B817C81F6
:10345000C1010E94A8198B819C8101979C838B8359
:10346000D4CF89819A816817790751F53A822982E8
:10347000241435049CF4A981BA814A165B060CF425
:10348000E9C0A801B30189819A810E94A819298104
:103490003A812F5F3F4F3A832983EACF29813A81CE
:1034A000241535050CF4D6C0A801B30189819A8191
:1034B0000E94A819A981BA811197BA83A983D8CF8C
:1034C0004215530554F4872D69807A8069838A8375
:1034D000922D832D1A01492E582EB20162197309BB
:1034E000072E000C880B990B0E94C1206F837887F0
:1034F00089879A8769817A8166197709072E000C76
:10350000880B990B0E94C1204B015C012F813885EB
:1035100049855A850E9417206B837C838D839E8307
:1035200020E030E0A9010E94712187FF09C08B8152
:103530009C81AD81BE81B0588B839C83AD83BE835B
:10354000C12CD12C760120E030E0A9016F81788573
:1035500089859A850E94712118160CF077C0421453
:1035600053040CF477C0A801B301C1010E94A8194B
:103570002B813C814D815E81C701B6010E94A61F4F
:103580006B017C0120E030E040E05FE30E947121AC
:1035900087FF10C020E030E0A9016F817885898520
:1035A0009A850E94712118160CF04CC09FEF291AC1
:1035B000390AC9CF20E030E0A901C501B4010E9459
:1035C00071211816CCF529813A812615370514F397
:1035D000A801B301C1010E94A819A1E0B0E0BC8715
:1035E000AB8720E030E0A901C501B4010E94712140
:1035F000181614F01C861B8621E030E03E872D87CC
:1036000020E030E0A901C501B4010E94122087FD2D
:1036100002C01E861D868B859C85AD85BE858A1B56
:103620009B0B680E791E20E030E040E85FE3C701A5
:10363000B6010E94A51FA4CF89819A8168167906D8
:103640003CF6A8CFA1E02A1A31087DCF2414350416
:103650000CF089CF2E960FB6F894DEBF0FBECDBF0B
:10366000DF91CF911F910F91FF90EF90DF90CF905E
:10367000BF90AF909F908F907F906F905F904F9092
:103680003F902F9008952F923F924F925F926F92AA
:103690007F928F929F92AF92BF92CF92DF92EF92E2
:1036A000FF920F931F93CF93DF936C014B0119018E
:1036B00085E0489F20011124E12CF12C80EA481A72
:1036C000510866246394712CF201EE0DFF1DEB5F2F
:1036D000FC4FE4912114310409F4E09500E010E07E
:1036E000CE2FD0E05601AE0CBF1CA301002E02C0AD
:1036F000440F551F0A94E2F74C235D23002E02C0AD
:10370000559547950A94E2F7B401600F711FC50102
:103710000E94A8190F5F1F4F0830110531F78FEF76
:10372000E81AF80A85E0E816F10471F6DF91CF9106
:103730001F910F91FF90EF90DF90CF90BF90AF90CF
:103740009F908F907F906F905F904F903F902F90C1
:103750000895CF92DF92EF92FF920F931F93CF9332
:10376000DF937B018A016901D82FC0E0F801EC0FDB
:10377000F11D4081442349F09601B7018D2F90E05F
:103780000E94431BDB5FCF5FF1CFDF91CF911F9191
:103790000F91FF90EF90DF90CF90089525B12F7D8E
:1037A00030E2839FC0011124822B85B95F9887E0A6
:1037B00090E070E08F989B01082E02C03595279508
:1037C0000A94E2F720FF02C02E9A01C02E988F9A29
:1037D000019780F75F9A0895CF93C82F579A249A3C
:1037E000259A269A879A2C985F9A2C9A61E280E013
:1037F0000E94CE1B6C2F606880E00E94CE1B64E0AC
:1038000080E00E94CE1B63E180E00E94CE1B6CE052
:1038100080E00E94CE1B60E280E00E94CE1B6CE044
:1038200080E00E94CE1B60E480E00E94CE1B60E836
:1038300080E0CF910C94CE1BCF93C82F606480E0C2
:103840000E94CE1B6C2F606880E0CF910C94CE1B41
:10385000A0E1B0E0EEE2FCE10C9497227C011B01B8
:103860006A01FC0117821682838181FF44C39E0195
:103870002F5F3F4F3901F7019381F10193FD85914E
:1038800093FF81911F01882309F431C3853239F4F4
:1038900093FD859193FF81911F01853239F4B70122
:1038A00090E00E942C2456016501E5CF10E0512CD8
:1038B000912CFFE1F915D8F08B3279F038F4803291
:1038C00079F08332A1F4F92DF0612EC08D3261F0D0
:1038D000803369F4292D21602DC0392D3260932E5B
:1038E000892D8460982E2AC0E92DE86015C097FCC8
:1038F0002DC020ED280F2A3088F496FE06C03AE04D
:10390000139F200D1124122F19C08AE0589E200DFC
:103910001124522EE92DE0629E2E10C08E3231F419
:1039200096FCE5C2F92DF0649F2E08C08C3621F478
:10393000292D2068922E02C0883641F4F10193FDB2
:10394000859193FF81911F018111B3CF9BEB980F5C
:10395000933020F4992D9061805E07C09BE9980F09
:10396000933008F066C1992D9F7E96FF16E09F73F5
:10397000992E853619F49064992E08C0863621F464
:10398000392F3068932E02C01111115097FE07C0D5
:103990001C3350F444244394410E27E00BC01830EC
:1039A00038F027E017E005C027E09CE3492E02C06D
:1039B000212F412C560184E0A80EB11CF601608134
:1039C000718182819381042DA3010E943E236C01A9
:1039D000F981FC87F0FF02C0F3FF06C091FC06C02E
:1039E00092FE06C000E205C00DE203C00BE201C07A
:1039F00000E08C858C7019F001115AC29BC297FEB1
:103A000010C04C0CFC85F4FF04C08A81813309F49A
:103A10004A94141474F528E0241578F588E0482EAB
:103A20002CC096FC2AC0812F90E08C159D059CF03F
:103A30003CEFC3163FEFD30674F0892D8068982EB3
:103A40000AC0E2E0F0E0EC0FFD1FE10FF11D808104
:103A5000803319F411501111F4CF97FE0EC0442495
:103A60004394410E812F90E0C816D9062CF41C19FE
:103A700004C04424439401C010E097FE06C01C1407
:103A80001D0434F4C601019605C085E090E002C033
:103A900081E090E001110196112331F0212F30E0F7
:103AA0002F5F3F4F820F931F252D30E08217930722
:103AB00014F4581A01C0512C892D897049F45520ED
:103AC00039F0B70180E290E00E942C245A94F7CF9D
:103AD000002329F0B701802F90E00E942C2493FC52
:103AE00009C0552039F0B70180E390E00E942C24F2
:103AF0005A94F7CF97FE4CC04601D7FE02C0812CE6
:103B0000912CC60188199909F301E80FF91FFE8766
:103B1000ED87960124193109388B2F87012F10E08A
:103B20001195019511093FEF8316930629F4B7010A
:103B30008EE290E00E942C24C814D9044CF08F85AA
:103B400098898815990524F4ED85FE85818101C049
:103B500080E3F1E08F1A91082D853E852F5F3F4F5E
:103B60003E872D87801691062CF0B70190E00E94C9
:103B70002C24D9CFC814D90441F49A81963320F467
:103B8000953319F43C8534FF81E3B70190E04EC0D2
:103B90008A81813319F09C859F7E9C87B70190E0D4
:103BA0000E942C24111105C094FC18C085E690E0F9
:103BB00017C0B7018EE290E00E942C241E5F82E0C5
:103BC00001E0080FF301E80FF11D8081B70190E0DB
:103BD0000E942C24802F0113F3CFE6CF85E490E0E0
:103BE000B7010E942C24D7FC06C0C114D10441F4B3
:103BF000EC85E4FF05C0D194C194D1088DE201C0E9
:103C00008BE2B70190E00E942C2480E32AE0C216E8
:103C1000D1042CF08F5FFAE0CF1AD108F7CFB701AB
:103C200090E00E942C24B701C601C0960E942C246B
:103C300054C1833631F0833779F0833509F056C0AB
:103C400020C0560132E0A30EB11CF60180818983A9
:103C500001E010E0630112C05601F2E0AF0EB11CAA
:103C6000F601C080D18096FE03C0612F70E002C0D3
:103C70006FEF7FEFC6010E9421248C01F92DFF77A1
:103C800014C0560122E0A20EB11CF601C080D18002
:103C900096FE03C0612F70E002C06FEF7FEFC60198
:103CA0000E9416248C01F92DF0689F2EF3FD1AC096
:103CB000852D90E008171907A8F4B70180E290E07D
:103CC0000E942C245A94F4CFF60197FC859197FE1C
:103CD00081916F01B70190E00E942C2451105A94F9
:103CE000015011090115110579F7F7C0843611F05B
:103CF000893661F5560197FE09C024E0A20EB11C79
:103D0000F60160817181828193810AC0F2E0AF0E79
:103D1000B11CF60160817181072E000C880B990B94
:103D2000F92DFF769F2E97FF09C09095809570958D
:103D300061957F4F8F4F9F4FF0689F2E2AE030E0B4
:103D4000A3010E94B124C82EC6183FC0092D853793
:103D500021F40F7E2AE030E01DC0097F8F3691F0FC
:103D600018F4883559F0C3C0803719F0883711F03E
:103D7000BEC0006104FF09C0046007C094FE08C013
:103D8000066006C028E030E005C020E130E002C057
:103D900020E132E0560107FF09C084E0A80EB11C03
:103DA000F601608171818281938108C0F2E0AF0EDB
:103DB000B11CF6016081718180E090E0A3010E9456
:103DC000B124C82EC6180F77902E96FE0BC0092D71
:103DD0000E7FC11650F494FE0AC092FC08C0092D53
:103DE0000E7E05C0DC2C092D03C0DC2C01C0D12EB9
:103DF00004FF0DC0FE01EC0DF11D8081803311F434
:103E0000097E09C002FF06C0D394D39404C0802F5A
:103E1000867809F0D39403FD11C000FF06C01C2D65
:103E2000D51480F4150D1D190DC0D51458F4B70123
:103E300080E290E00E942C24D394F7CFD51410F4A4
:103E40005D1801C0512C04FF10C0B70180E390E061
:103E50000E942C2402FF17C001FD03C088E790E0F8
:103E600002C088E590E0B7010CC0802F867859F039
:103E700001FF02C08BE201C080E207FD8DE2B701C5
:103E800090E00E942C24C11638F4B70180E390E042
:103E90000E942C241150F7CFCA94F301EC0DF11DB0
:103EA0008081B70190E00E942C24C110F5CF15C08D
:103EB000F4E0F51560F584E0581A93FE1FC0011177
:103EC00027C02C8523FF2AC00EE211E0392D307166
:103ED000932EF8018491811124C0552009F4E4CC7B
:103EE000B70180E290E00E942C245A94F6CFF701AB
:103EF0008681978126C08FEF9FEF23C0B70180E2B4
:103F000090E00E942C245A945110F8CFD8CF512C15
:103F1000B701802F90E00E942C24D3CF02E311E060
:103F2000D5CF91108052B70190E00E942C240F5FF2
:103F30001F4FCFCF23E0251510F483E0BDCF512CC8
:103F4000C0CF6096E2E10C94B3225058BB27AA2759
:103F50000E94BD1F0C9437210E94292138F00E9435
:103F6000302120F039F49F3F19F426F40C942621D7
:103F70000EF4E095E7FB0C942021E92F0E944821E4
:103F800058F3BA17620773078407950720F079F48E
:103F9000A6F50C946A210EF4E0950B2EBA2FA02DF5
:103FA0000B01B90190010C01CA01A0011124FF27E6
:103FB000591B99F0593F50F4503E68F11A16F040E1
:103FC000A22F232F342F4427585FF3CF46953795E0
:103FD0002795A795F0405395C9F77EF41F16BA0BA5
:103FE000620B730B840BBAF09150A1F0FF0FBB1F53
:103FF000661F771F881FC2F70EC0BA0F621F731F9C
:10400000841F48F4879577956795B795F7959E3FF8
:1040100008F0B0CF9395880F08F09927EE0F979589
:10402000879508950E94FC2008F481E008950E947D
:104030002B200C9437210E94302158F00E94292116
:1040400040F029F45F3F29F00C94202151110C9489
:104050006B210C9426210E94482168F39923B1F327
:10406000552391F3951B550BBB27AA27621773079E
:10407000840738F09F5F5F4F220F331F441FAA1F32
:10408000A9F335D00E2E3AF0E0E832D091505040EE
:10409000E695001CCAF72BD0FE2F29D0660F771F9C
:1040A000881FBB1F261737074807AB07B0E809F082
:1040B000BB0B802DBF01FF2793585F4F3AF09E3F07
:1040C000510578F00C9420210C946B215F3FE4F3B0
:1040D000983ED4F3869577956795B795F7959F5F4A
:1040E000C9F7880F911D9695879597F90895E1E096
:1040F000660F771F881FBB1F621773078407BA07F5
:1041000020F0621B730B840BBA0BEE1F88F7E0954F
:1041100008950E9490206894B1110C946B21089529
:104120000E94502188F09F5798F0B92F9927B751D6
:10413000B0F0E1F0660F771F881F991F1AF0BA954B
:10414000C9F714C0B13091F00E946A21B1E008951E
:104150000C946A21672F782F8827B85F39F0B93F10
:10416000CCF3869577956795B395D9F73EF49095FE
:104170008095709561957F4F8F4F9F4F0895E8947C
:1041800009C097FB3EF490958095709561957F4F9F
:104190008F4F9F4F9923A9F0F92F96E9BB2793954D
:1041A000F695879577956795B795F111F8CFFAF45D
:1041B000BB0F11F460FF1BC06F5F7F4F8F4F9F4F8E
:1041C00016C0882311F096E911C0772321F09EE8EC
:1041D000872F762F05C0662371F096E8862F70E052
:1041E00060E02AF09A95660F771F881FDAF7880F2C
:1041F0009695879597F90895990F0008550FAA0B82
:10420000E0E8FEEF16161706E807F907C0F01216E9
:104210001306E407F50798F0621B730B840B950BEC
:1042200039F40A2661F0232B242B252B21F4089541
:104230000A2609F4A140A6958FEF811D811D0895DE
:1042400097F99F6780E870E060E008959FEF80EC49
:10425000089500240A9416161706180609060895EC
:1042600000240A9412161306140605060895092E52
:104270000394000C11F4882352F0BB0F40F4BF2BC1
:1042800011F460FF04C06F5F7F4F8F4F9F4F089501
:1042900057FD9058440F551F59F05F3F71F04795F7
:1042A000880F97FB991F61F09F3F79F087950895DC
:1042B000121613061406551FF2CF4695F1DF08C0FB
:1042C000161617061806991FF1CF86957105610518
:1042D00008940895E894BB2766277727CB0197F9C0
:1042E00008950E94FC2008F48FEF08950E94892110
:1042F0000C9437210E94292138F00E94302120F0AF
:10430000952311F00C9420210C94262111240C9457
:104310006B210E94482170F3959FC1F3950F50E0E7
:10432000551F629FF001729FBB27F00DB11D639F67
:10433000AA27F00DB11DAA1F649F6627B00DA11D0D
:10434000661F829F2227B00DA11D621F739FB00DB3
:10435000A11D621F839FA00D611D221F749F332723
:10436000A00D611D231F849F600D211D822F762FBC
:104370006A2F11249F5750409AF0F1F088234AF099
:10438000EE0FFF1FBB1F661F771F881F9150504005
:10439000A9F79E3F510580F00C9420210C946B21CD
:1043A0005F3FE4F3983ED4F3869577956795B7958C
:1043B000F795E7959F5FC1F7FE2B880F911D9695A6
:1043C000879597F908950E945021E8F09E37E8F00C
:1043D0009639B8F49E3848F4672F782F8827985F6D
:1043E000F9CF86957795679593959539D0F3B62F44
:1043F000B1706B0F711D811D20F4879577956795BE
:1044000093950C944D220C9468220C946B2119F412
:1044100016F40C9426210C9468220E945021B8F3C3
:104420009923C9F3B6F39F57550B87FF0E94762255
:104430000024A0E640EA900180585695979528F40C
:10444000805C660F771F881F20F026173707480704
:1044500030F4621B730B840B202931294A2BA6955B
:1044600017940794202531254A2758F7660F771FA0
:10447000881F20F026173707480730F4620B730BAC
:10448000840B200D311D411DA09581F7B901842FAA
:104490009158880F969587950895882371F477230E
:1044A00021F09850872B762F07C0662311F49927A7
:1044B0000DC09051862B70E060E02AF09A95660F4F
:1044C000771F881FDAF7880F9695879597F90895D3
:1044D0009F3F31F0915020F4879577956795B79578
:1044E000880F911D9695879597F9089591505040A2
:1044F000660F771F881FD2F7089597FB072E16F4D3
:10450000009407D077FD09D00E94CE2207FC05D089
:104510003EF4909581959F4F0895709561957F4FDA
:104520000895EE0FFF1F0590F491E02D09942F924E
:104530003F924F925F926F927F928F929F92AF9233
:10454000BF92CF92DF92EF92FF920F931F93CF9380
:10455000DF93CDB7DEB7CA1BDB0B0FB6F894DEBF17
:104560000FBECDBF09942A88398848885F846E843D
:104570007D848C849B84AA84B984C884DF80EE8087
:10458000FD800C811B81AA81B981CE0FD11D0FB690
:10459000F894DEBF0FBECDBFED010895AA1BBB1B73
:1045A00051E107C0AA1FBB1FA617B70710F0A61B33
:1045B000B70B881F991F5A95A9F780959095BC0154
:1045C000CD0108958F929F92AF92BF92CF92DF92CA
:1045D000EF92FF92CF93DF93EC01688179818A811A
:1045E0009B81611571058105910521F464E279EDE6
:1045F0008BE597E02DE133EF41E050E00E942A285F
:1046000049015A019B01AC01A7EAB1E40E94492883
:104610006B017C01ACEEB4EFA50194010E94572818
:10462000DC01CB018C0D9D1DAE1DBF1DB7FF03C06E
:104630000197A109B04888839983AA83BB839F7798
:10464000DF91CF91FF90EF90DF90CF90BF90AF9030
:104650009F908F9008950E94E222089588ED91E046
:104660000E94E2220895A0E0B0E08093D8019093E8
:10467000D901A093DA01B093DB010895283008F046
:1046800027E03327DA01990F311D87FD91600096ED
:104690006105710539F432602E5F3D9330E32A9550
:1046A000E1F708959F3F30F080387105610509F00A
:1046B0003C5F3C5F3D93913008F08068911DDF9333
:1046C000CF931F930F93FF92EF92192F987F969598
:1046D000E92F96959695E90FFF27E057FE4F99270A
:1046E0003327EE24FF24A701E701059008940794DF
:1046F00028F4360FE71EF81E491F511D660F771F5D
:10470000881F991F0694A1F70590079428F4E70ED7
:10471000F81E491F561FC11D770F881F991F661F5E
:104720000694A1F70590079428F4F80E491F561F28
:10473000C71FD11D880F991F661F771F0694A1F709
:104740000590079420F4490F561FC71FD81F990FD3
:10475000661F771F881F0694A9F78491109517701C
:1047600041F0D695C79557954795F794E7941A95D4
:10477000C1F7E6E3F1E068941590159135916591E4
:10478000959105907FE27395E118F10A430B560B62
:10479000C90BD009C0F7E10CF11E431F561FC91FFA
:1047A000D01D7EF4703311F48A95E6CFE894015061
:1047B00030F0080F0AF40027021708F4202F239581
:1047C000022F7A3328F079E37D932A95E9F710C018
:1047D0007D932A9589F60694979567953795179551
:1047E0001794E118F10A430B560BC90BD00998F046
:1047F00023957E9173957A3308F070E37C932013B0
:10480000B8F77E9170617D9330F0839571E37D936D
:1048100070E32A95E1F71124EF90FF900F911F911B
:10482000CF91DF91992787FD90950895FC01059020
:10483000615070400110D8F7809590958E0F9F1FA2
:104840000895FC016150704001900110D8F78095E7
:1048500090958E0F9F1F08950F931F93CF93DF9313
:10486000FB01238121FD03C08FEF9FEF2CC022FFAE
:1048700016C046815781248135814217530744F47D
:10488000A081B1819D012F5F3F4F318320838C93A5
:10489000268137812F5F3F4F3783268314C08B01DA
:1048A000EC01FB010084F185E02D0995892BE1F6EF
:1048B000D80116968D919C911797019617969C9307
:1048C0008E931697CE01DF91CF911F910F9108958E
:1048D000AEE0B0E0EEE6F4E20C94A5220D891E896C
:1048E0008F89988D26E02C831A83098397FF02C055
:1048F00080E090E801979E838D83AE01455E5F4F17
:10490000698D7A8DCE0101960E94281C4D815E81B1
:1049100057FD0AC02F813885421753070CF49A01BE
:10492000F801E20FF31F10822E96E4E00C94C122EE
:10493000AEE0B0E0EEE9F4E20C94A72285E08C83CF
:104940008B899C899A838983AE01495E5F4F6D890B
:104950007E89CE0101960E94AB262E96E2E00C9451
:10496000C322FA01AA27283051F1203181F1E894BD
:104970006F936E7F6E5F7F4F8F4F9F4FAF4FB1E052
:104980003ED0B4E03CD0670F781F891F9A1FA11D4D
:10499000680F791F8A1F911DA11D6A0F711D811D4E
:1049A000911DA11D20D009F468943F912AE0269F13
:1049B00011243019305D3193DEF6CF010895462F72
:1049C0004770405D4193B3E00FD0C9F7F6CF462F53
:1049D0004F70405D4A3318F0495D31FD40524193BC
:1049E00002D0A9F7EACFB4E0A69597958795779579
:1049F0006795BA95C9F700976105710508959B0100
:104A0000AC010A2E06945795479537952795BA9588
:104A1000C9F7620F731F841F951FA01D089520FD05
:104A200009C0FC0123FD05C022FF02C0738362831D
:104A300051834083089544FD17C046FD17C0AB0164
:104A4000BC01DA01FB01AA0FBB1FEE1FFF1F109470
:104A5000D1F74A0F5B1F6E1F7F1FCB01BA01660F94
:104A6000771F881F991F09C033E001C034E0660F2B
:104A7000771F881F991F3150D1F7620F711D811D5B
:104A8000911D08950F931F93CF93DF938C01C8015D
:104A90000E94D027EC0197FD08C00E94BC27892BFB
:104AA000B1F7B801CE010E940E28CE01DF91CF915F
:104AB0001F910F9108958F929F92AF92BF92EF92A4
:104AC000FF920F931F93CF93DF938C01D62F7A0120
:104AD000B22E0E94D0279C0133272B32310531F0B2
:104AE0002D32310561F48B2D8068B82ED15011F430
:104AF00080E068C0C8010E94D02797FDF9CFCB2D78
:104B0000CD7F2B2D207309F58033F9F4AA24AA94C4
:104B1000AD0E09F443C0C8010E94D02797FD3EC0E6
:104B20009C012F7D33272835310549F4C264D250CA
:104B3000A9F1C8010E94D02797FF07C02FC0B6FE79
:104B400002C0C26001C0C261DA2D812C912C5401D7
:104B500020ED280F283080F0C4FF04C0B8010E9467
:104B60000E2819C02A3040F0C6FFF8CF2F7D3FEE47
:104B7000320F363098F727504C2FC501B4010E94F0
:104B80001B254B015C01C260D15059F0C8010E9445
:104B9000D02797FFDDCFC1FD04C0AACF812C912C77
:104BA0005401C7FF08C0B094A09490948094811CD5
:104BB000911CA11CB11C2C2FB501A401C7010E949E
:104BC0000F2581E0DF91CF911F910F91FF90EF9022
:104BD000BF90AF909F908F900895A0E2B0E0E3EF78
:104BE000F5E20C949A225C01962E7A01F9018E016D
:104BF0000F5F1F4F680180E2D8011D928A95E9F787
:104C0000D50113968C9080E090E0612C712C30E0FF
:104C100061E070E083FC259183FE21918F01522E8B
:104C2000211103C080E090E092C02E3511F400976E
:104C300051F1432F50E0481759073CF42D3559F1F5
:104C40002D3219F4772009F103C0772009F46AC0E6
:104C5000452D469546954695D601A40FB11D452D87
:104C600047708B0102C0000F111F4A95E2F7A8019F
:104C70005C91452B4C93651459F0561410F45394E1
:104C8000E7CF5A94E5CF31E004C07724739401C094
:104C9000712C0196BFCF772019F08E8180628E83B0
:104CA000311103C08824839417C0F6019E012F5D43
:104CB0003F4F8081809581932E173F07D1F7F2CF28
:104CC000E114F10429F0D7018C93F70131967F01AB
:104CD0009A94812C9920F9F0C5010E94D02797FD64
:104CE00018C0FC01FF2723E0F595E7952A95E1F729
:104CF000EC0DFD1D208130E0AC014770552702C04E
:104D0000359527954A95E2F720FDDACFB5010E9447
:104D10000E28811087CFE114F10411F0D7011C9205
:104D2000C80115C0422F469546954695D601A40F59
:104D3000B11D422F47708B0102C0000F111F4A9511
:104D4000E2F7A8015C91452B4C93622EA2CFA0966E
:104D5000EFE00C94B622A0E0B0E0E1EBF6E20C94B8
:104D60009A226C01EB015A01FC0117821682512C28
:104D7000F601E380FE01E3FC8591E3FE8191182FAB
:104D8000EF01882309F4EEC090E00E94BC27892B34
:104D900021F0C6010E944225EBCF153241F4FE01FD
:104DA000E3FC1591E3FE1191EF01153281F4C60188
:104DB0000E94D02797FDD4C0412F50E09C0133279B
:104DC00024173507A9F2B6010E940E28CBC01A326B
:104DD00039F4E3FC1591E3FE1191EF0101E001C00C
:104DE00000E0F12C20ED210F2A3080F402606F2DBD
:104DF00070E080E090E040E20E941B25F62EFE016C
:104E0000E3FC1591E3FE1191EF01ECCF01FF03C02C
:104E1000F11003C0A7C0FF24FA94183619F01C360D
:104E200051F010C0FE01E3FC1591E3FE1191EF017A
:104E3000183641F408600460FE01E3FC1591E3FEBE
:104E40001191EF01112309F48DC0612F70E080E30F
:104E500092E00E94C527892B09F484C000FD07C099
:104E6000F50180809180C50102965C0102C0812C11
:104E7000912C1E3651F4F6014681578160E070E0B6
:104E8000202FC4010E940F2573CF1336A9F401FD12
:104E900002C0FF24F394C6010E94D02797FD60C092
:104EA0008114910429F0F4018083C40101964C011E
:104EB000FA94F110F0CF50C01B3559F49E01A401B3
:104EC0006F2DC6010E94ED25EC01892B09F044C02D
:104ED0003EC0C6010E94422597FD42C01F3661F1C7
:104EE00028F4143639F1193651F128C0133771F00E
:104EF000153701F123C08114910429F0F401608277
:104F0000C40101964C01FA94FF2071F0C6010E9481
:104F1000D0273C0197FD08C00E94BC27892B59F37C
:104F2000B601C3010E940E2881149104A9F0F40176
:104F3000108212C0006203C0006101C00064202F13
:104F4000A4016F2DC6010E945B25811105C0F601E9
:104F50008381807329F406C000FD0ACF539408CFE3
:104F6000552019F0852D90E002C08FEF9FEFCDB74F
:104F7000DEB7EFE00C94B62291110C942728803212
:104F800019F089508550C8F70895FC010590061660
:104F900021F00020D9F7C00108953197CF0108957D
:104FA000CF93DF93EC012B8120FF33C026FF0AC093
:104FB0002F7B2B838E819F8101969F838E838A8195
:104FC00090E029C022FF0FC0E881F9818081082E7E
:104FD000000C990B009719F420622B831AC03196AC
:104FE000F983E8830EC0EA85FB85099597FF09C020
:104FF0002B81019611F080E201C080E1822B8B832E
:1050000008C02E813F812F5F3F4F3F832E8399271A
:1050100002C08FEF9FEFDF91CF910895FB012381B5
:1050200020FF12C026FD10C08F3F3FEF930761F0B5
:1050300082832F7D2064238326813781215031098B
:1050400037832683992708958FEF9FEF0895992737
:1050500088270895052E97FB1EF400940E9441288E
:1050600057FD07D00E945C2807FC03D04EF40C9437
:10507000412850954095309521953F4F4F4F5F4FB8
:10508000089590958095709561957F4F8F4F9F4FB4
:1050900008950E947E28A59F900DB49F900DA49F17
:1050A000800D911D11240895B7FF0C9449280E948A
:1050B0004928821B930B0895A1E21A2EAA1BBB1B41
:1050C000FD010DC0AA1FBB1FEE1FFF1FA217B307D4
:1050D000E407F50720F0A21BB30BE40BF50B661FEA
:1050E000771F881F991F1A9469F7609570958095AE
:1050F00090959B01AC01BD01CF010895A29FB00125
:10510000B39FC001A39F700D811D1124911DB29FFB
:0E511000700D811D1124911D0895F894FFCF9C
:10511E004C5252550A000F001E001E0014000A00C9
:10512E000F004800140023001E0019000A00190089
:10513E002D003A0019002D000A001E000D00190066
:10514E003C0048000F0023000A001900120019004D
:10515E002D003A006F5840434A6A5428004E000B07
:10516E000064006400640064006400640064006411
:10517E000064006400640064006400640064006401
:10518E0000640064006400640064006400640064F1
:10519E0000640064006400640064006400640064E1
:1051AE0000640064006400640064006400640064D1
:1051BE0000640064006400640064006400640064C1
:1051CE0000640064006400640064006400640064B1
:1051DE00006400640064006400CDCCCC3D05000189
:1051EE000000E100000000080100000025303264DC
:1051FE000043616C6C756D204D634E65696C616723
:10520E0065006E313430383236353200546F6D20D1
:10521E00616E64204A657272793A0054686520475F
:10522E00616D6500285072657373205357332900E2
:10523E005F5F5F5F5F5F5F5F5F5F5F5F5F5F5F5F70
:10524E005F5F004C3A00483A00533A00543A004728
:10525E00616D65204F766572210050726573732003
:10526E0053573320746F0072657374617274002526
:10527E0064202564202564202564007265636965B9
:10528E0076656420272563270D0A007265636965BC
:10529E007665642025630D0A0054696D657374612B
:1052AE006D703A20253032643A253032640D0A0092
:1052BE004C6576656C3A2025640D0A004C6976655E
:1052CE00733A2025640D0A0053636F72653A2025E8
:1052DE00640D0A004E756D626572206F66206669F8
:1052EE007265776F726B733A2025640D0A004E75E6
:1052FE006D626572206F66204D6F75736574726195
:10530E0070733A2025640D0A004E756D6265722029
:10531E006F66206368656573653A2025640D0A0023
:10532E004E756D626572206F662063686565736584
:10533E0020636F6E73756D65643A2025640D0A00E7
:10534E005375706572204D6F64653A2025640D0AA1
:10535E00005061757365204D6F64653A2025640DAC
:02536E000A0033
:00000001FF
